:020000040000FA
:10000000000002282030FE000130FF008030000098
:100010000000B1200000000083160000A1007F084E
:10002000A0002230A2000130A300831600002008A7
:10003000A4002108A500FF30A007031CA103250888
:10004000240403199A2804302207A400A501A50D51
:100050002308A5072408FE002508FF0080300000C3
:100060000000B1200000000083160000A7007F08F8
:10007000A6002208FE002308FF00803000000000D8
:10008000B1200000000083160000A900A5007F0831
:10009000A400A80002302207A400A501A50D230892
:1000A000A5072408FE002508FF008030000000009E
:1000B000B1200000000083160000A500AB007F08FF
:1000C000AA00A400831600002608AA002708AB0097
:1000D000FF30A607031CA7032B082A040319932843
:1000E0002808FE002908FF008030000000009E2044
:1000F0000000000083160000AA00240883120313E6
:100100008400831383160000251883172A0883129E
:100110000313800083160000A80A0319A90AA40A81
:100120000319A50A6228063083160000A2070318E7
:10013000A30A152800000000FD280800003A031952
:10014000A528803A0319AC2800347E088400831364
:100150007F188317000808007F088A007E08820045
:100160000800003A0319B928803A0319C328FF018F
:1001700000347E08840083137F1883170008FF0073
:10018000840A0008080000000000AC20FD00FE0FFB
:10019000FF03FF0A00000000AC20FC007D08FF0008
:1001A0007C0808008316AE007F08AD00AF01B001E7
:1001B00083162E083002031DDF282D082F02031896
:1001C000FC28FB308316B1000430B200FF308316E8
:1001D0003107B300FF30B40032080318320FB40700
:1001E0003308B1003408B20034083304031DE62894
:1001F000AF0A0319B00AD8280800831685018312B4
:100200008501831205106430FF000030D220831670
:10021000AC018312051C0E298316AC0A83162C0927
:10022000AC002C0C0318162983120510031C1A2984
:10023000831205146430FF000030D2200129080029
:100240000134003428340134B5340034013400342E
:02025000003478
:00000001FF
