:020000040000FA
:10000000000084290830831685008312850108309A
:1000100083169F008312A801A901AA01AB018312D4
:100020002908803E803E031D17280A302802031845
:10003000392883122A08383EAC000030AD002B0866
:1000400003182B0FAD072C0883128400831383122F
:100050002D188317FF3083128000840AFF30800040
:1000600002308312AA070318AB0AA80A0319A90AC7
:100070000F288312A801A901AA01AB018312290844
:10008000803E803E031D4628013028020318B22816
:10009000CD238312AD007F08AC00AE01AF01B001EB
:1000A000B101B201B30183123108803E803E031DCD
:1000B0005B280A30300203188C2883123208383E3D
:1000C000B4000030B50033080318330FB507340807
:1000D0008312840083138312351883178312000858
:1000E0008312B6008312840A00088312B7002C081A
:1000F0003606031D83282D083706031D832801308B
:10010000AE00AF018C2802308312B2070318B30A85
:10011000B00A0319B10A532883122F082E04031DB5
:100120003E282A08383EAE000030AF002B080318E6
:100130002B0FAF072E0883128400831383122F180E
:1001400083172C0883128000840A83122D088312DF
:10015000800002308312AA070318AB0AA80A031909
:10016000A90A3E28831238088312A800831239088E
:100170008312A9002808FF00290809248312A90076
:100180007F08A800831238088312AA008312390856
:100190008312AB002A08FF002B08F6238312AB0062
:1001A0007F08AA000030FD000030FE002808FF0094
:1001B000290830248312A9007F08A8000030FD0020
:1001C0000030FE002A08FF002B082A248312AB000F
:1001D0007F08AA000839031D0130AC002A08043941
:1001E000031D0130AD002A080239031D0130AE00A5
:1001F0002A08AF0028080839031D0130AA00280882
:100200000439031D0130AB0028080239031D0130F9
:10021000B0002808B100831285128312310C031834
:10022000132983120510031C172983120514831246
:10023000300C03181D2983128510031C21298312F9
:10024000851483122B0C0318272983120511031C14
:100250002B298312051583122A0C031831298312C6
:100260000512031C3529831205166430FF00003087
:10027000A223831205108510051105128312A8010F
:100280008312851E45298312A80A83122809A80013
:10029000280C03184D2983128512031C512983123F
:1002A000851683122F0C0318572983120510031C7F
:1002B0005B298312051483122E0C03186129831203
:1002C0008510031C65298312851483122D0C0318D5
:1002D0006B2983120511031C6F29831205158312E4
:1002E0002C0C0318752983120512031C792983121B
:1002F00005166430FF000030A2238312051085101C
:10030000051105120B2908001C30FE000430FF0007
:1003100080300000000081230000000083160000F0
:10032000A1007F08A0001E30A2000430A3008316A5
:1003300000002008A4002108A500FF30A007031C2E
:10034000A1032508240403191C2A04302207A40051
:10035000A501A50D2308A5072408FE002508FF0018
:1003600080300000000081230000000083160000A0
:10037000A7007F08A6002208FE002308FF008030A7
:100380000000000081230000000083160000A90087
:10039000A5007F08A400A80002302207A400A50140
:1003A000A50D2308A5072408FE002508FF008030BE
:1003B0000000000081230000000083160000A5005B
:1003C000AB007F08AA00A400831600002608AA003C
:1003D0002708AB00FF30A607031CA7032B082A043D
:1003E0000319152A2808FE002908FF0080300000A4
:1003F00000006E230000000083160000AA002408FD
:1004000083120313840083138316000025188317B7
:100410002A0883120313800083160000A80A031918
:10042000A90AA40A0319A50AE429063083160000C4
:10043000A2070318A30A9729000000000228080059
:1004400083160000AD007F08AC007E08AF007D0879
:10045000AE000314AD1F0310B001B00D3008031936
:10046000392A2C09B1002D09B200B10A0319B20AC8
:100470003F2A831600002C08B1002D08B200831615
:1004800000003108AC003208AD000314AF1F0310A8
:10049000B101B10D31080319552A2E09B2002F09F7
:1004A000B300B20A0319B30A5B2A831600002E08B0
:1004B000B2002F08B300831600003208AE00FD0022
:1004C0003308AF00FE002C08FF002D0800000000DC
:1004D00034230000000083160000AD007F08AC004C
:1004E0003108B00630080319802A2C09B0002D0904
:1004F000AE00B00A0319AE0A3008FF002E08852AA4
:10050000831600002C08FF002D080800831200004D
:10051000CD007F08CC007E08CF007D08CE000314FC
:10052000CD1F0310D001D00D500803199F2A4C098C
:10053000D1004D09D200D10A0319D20AA52A83128B
:1005400000004C08D1004D08D20083120000510871
:10055000CC005208CD000314CF1F0310031CB82A8F
:100560004E09D1004F09D200D10A0319D20ABE2A7E
:10057000831200004E08D1004F08D2008312000001
:100580005108CE00FD005208CF00FE004C08FF00CD
:100590004D0800000000E722000000008312000068
:1005A000CD007F08CC0050080319E12A4C09D00087
:1005B0004D09CE00D00A0319CE0A5008FF004E089C
:1005C000E62A831200004C08FF004D080800831241
:1005D0000000D4007F08D3007E08D6007D08D50037
:1005E000D701D8018312000056088039031D01305D
:1005F000D9005908031D132B0310D50DD60D56082D
:100600005402031D052B5508530203180D2B03102C
:1006100083120000D60CD50C132B83120000D80ACD
:100620005808D700F22A8312000056085402031D0E
:100630001B2B55085302031C252B83120000550861
:10064000D3025608031C560FD40203108312000075
:10065000D60CD50C5708D800D7035808031D132B08
:100660005308FF005408080083160000B5007F08F7
:10067000B4007E08B7007D08B600B801B90110309B
:10068000BA008316000035088039031D0130BB0015
:100690000310B40DB50D0310B80DB90D3B08031DC3
:1006A000381437083902031D572B36083802031C4B
:1006B000622B831600003608B8023708031C370F78
:1006C000B9023414831600003A03BB00BA003B0899
:1006D000031D412B3408FF0035080800003A0319B8
:1006E000752B803A03197C2B00347E088400831319
:1006F0007F188317000808007F088A007E088200A0
:100700000800003A0319892B803A0319932BFF0143
:1007100000347E08840083137F1883170008FF00CD
:10072000840A00080800000000007C23FD00FE0F82
:10073000FF03FF0A000000007C23FC007D08FF008F
:100740007C0808008312A1007F08A000A201A30179
:10075000831221082302031DAF2B20082202031855
:10076000CC2BFB308312A4000430A500FF30831291
:100770002407A600FF30A70025080318250FA707A8
:100780002608A4002708A50027082604031DB62B69
:10079000A20A0319A30AA82B0800EF308316BC078E
:1007A000BE300318BF30BD076430FD000030FE00CE
:1007B0003C08FF003D08E7228312A1007F08FF00EC
:1007C00021080800003400340134003402340034BD
:1007D0000334003404340034053400340634003467
:1007E0000734003408340034093400348312A10083
:1007F0007F08A0000A30FD000030FE002008FF0046
:10080000210820228312A1007F08A000FF002108F8
:1008100008008312A1007F08A0000A30FD0000300C
:10082000FE002008FF00210886228312A1007F0815
:10083000A000FF00210808000234003436340434DC
:10084000BC3400340234003438340434BE34003450
:10085000013400348312A1007F08FF002108080042
:100860008312A1007F08FF00210808000034003433
:02087000003452
:00000001FF
